{
  "_format": "hh-sol-artifact-1",
  "contractName": "Twitter",
  "sourceName": "contracts/Twitter.sol",
  "abi": [
    {
      "inputs": [
        {
          "internalType": "address",
          "name": "_link",
          "type": "address"
        }
      ],
      "stateMutability": "nonpayable",
      "type": "constructor"
    },
    {
      "inputs": [],
      "name": "ChainlinkOnly",
      "type": "error"
    },
    {
      "anonymous": false,
      "inputs": [
        {
          "indexed": true,
          "internalType": "bytes32",
          "name": "id",
          "type": "bytes32"
        }
      ],
      "name": "ChainlinkCancelled",
      "type": "event"
    },
    {
      "anonymous": false,
      "inputs": [
        {
          "indexed": true,
          "internalType": "bytes32",
          "name": "id",
          "type": "bytes32"
        }
      ],
      "name": "ChainlinkFulfilled",
      "type": "event"
    },
    {
      "anonymous": false,
      "inputs": [
        {
          "indexed": true,
          "internalType": "bytes32",
          "name": "id",
          "type": "bytes32"
        }
      ],
      "name": "ChainlinkRequested",
      "type": "event"
    },
    {
      "inputs": [
        {
          "internalType": "bytes32",
          "name": "_requestId",
          "type": "bytes32"
        },
        {
          "internalType": "bytes32",
          "name": "_twitterHandle",
          "type": "bytes32"
        }
      ],
      "name": "fulfill",
      "outputs": [],
      "stateMutability": "nonpayable",
      "type": "function"
    },
    {
      "inputs": [
        {
          "internalType": "address",
          "name": "from",
          "type": "address"
        },
        {
          "internalType": "uint256",
          "name": "amount",
          "type": "uint256"
        },
        {
          "internalType": "bytes",
          "name": "data",
          "type": "bytes"
        }
      ],
      "name": "onTokenTransfer",
      "outputs": [
        {
          "internalType": "bool",
          "name": "success",
          "type": "bool"
        }
      ],
      "stateMutability": "nonpayable",
      "type": "function"
    },
    {
      "inputs": [
        {
          "internalType": "bytes32",
          "name": "twitterHandle",
          "type": "bytes32"
        }
      ],
      "name": "resolve",
      "outputs": [
        {
          "internalType": "address",
          "name": "ownerAddress",
          "type": "address"
        }
      ],
      "stateMutability": "view",
      "type": "function"
    }
  ],
  "bytecode": "0x608060405260016004819055600755600880546001600160a01b031916732f90a6d021db21e1b2a077c5a37b3c7e75d15b7e1790557f323966613961613133626631343638373838623763633461353030613435623860095534801561006457600080fd5b50604051610e12380380610e12833981016040819052610083916100a8565b600680546001600160a01b0319166001600160a01b03929092169190911790556100d8565b6000602082840312156100ba57600080fd5b81516001600160a01b03811681146100d157600080fd5b9392505050565b610d2b806100e76000396000f3fe608060405234801561001057600080fd5b50600436106100415760003560e01c8063042f2b65146100465780635c23bdf51461005b578063a4c0ed36146100a1575b600080fd5b610059610054366004610957565b6100c4565b005b610084610069366004610979565b6000908152600a60205260409020546001600160a01b031690565b6040516001600160a01b0390911681526020015b60405180910390f35b6100b46100af3660046109a8565b6101d0565b6040519015158152602001610098565b60008281526005602052604090205482906001600160a01b031633146101425760405162461bcd60e51b815260206004820152602860248201527f536f75726365206d75737420626520746865206f7261636c65206f6620746865604482015267081c995c5d595cdd60c21b60648201526084015b60405180910390fd5b60008181526005602052604080822080546001600160a01b03191690555182917f7cc135e0cebb02c3480ae5d74d377283180a2601f8f644edf7987b009316c63a91a26000838152600b6020908152604080832054858452600a90925290912080546001600160a01b0319166001600160a01b039092169182179055806101c95750505050565b505b505050565b6006546000906001600160a01b031633146101fe57604051631494d40160e11b815260040160405180910390fd5b60006102146009543063042f2b6560e01b610297565b6040805180820190915260078152661d1dd9595d125160ca1b6020820152909150610241908290856102bc565b600854600754600091610261916001600160a01b039091169084906102da565b6000908152600b6020526040902080546001600160a01b0388166001600160a01b03199091161790555060019150509392505050565b61029f61091c565b6102a761091c565b6102b38186868661036d565b95945050505050565b60808301516102cb90836103b3565b60808301516101cb90826103ca565b6004546000906102eb816001610a97565b600455835160408086015160808701515191516000936320214ca360e11b936103239386938493923092918a91600191602401610afc565b60408051601f198184030181529190526020810180516001600160e01b03166001600160e01b0319909316929092179091529050610363868386846103d7565b9695505050505050565b61037561091c565b6103858560800151610100610535565b50508284526001600160a01b03821660208501526001600160e01b031981166040850152835b949350505050565b6103c082600383516105a0565b6101cb82826106af565b6103c082600283516105a0565b6040516bffffffffffffffffffffffff193060601b1660208201526034810184905260009060540160408051808303601f1901815282825280516020918201206000818152600590925291812080546001600160a01b0319166001600160a01b038a1617905590925082917fb5e6e01e79f91267dc17b4e6314d5d4d03593d2ceee0fbb452b750bd70ea5af99190a2600254604051630200057560e51b81526001600160a01b0390911690634000aea09061049a90889087908790600401610b64565b6020604051808303816000875af11580156104b9573d6000803e3d6000fd5b505050506040513d601f19601f820116820180604052508101906104dd9190610b8b565b6103ab5760405162461bcd60e51b815260206004820152602360248201527f756e61626c6520746f207472616e73666572416e6443616c6c20746f206f7261604482015262636c6560e81b6064820152608401610139565b604080518082019091526060815260006020820152610555602083610bad565b1561057d57610565602083610bad565b610570906020610bcf565b61057a9083610a97565b91505b506020808301829052604080518085526000815283019091019052815b92915050565b60178167ffffffffffffffff16116105c5576101c98360e0600585901b1683176106dd565b60ff8167ffffffffffffffff1611610603576105ec836018611fe0600586901b16176106dd565b506101c98367ffffffffffffffff83166001610702565b61ffff8167ffffffffffffffff16116106425761062b836019611fe0600586901b16176106dd565b506101c98367ffffffffffffffff83166002610702565b63ffffffff8167ffffffffffffffff16116106835761066c83601a611fe0600586901b16176106dd565b506101c98367ffffffffffffffff83166004610702565b61069883601b611fe0600586901b16176106dd565b506101c98367ffffffffffffffff83166008610702565b6040805180820190915260608152600060208201526106d683846000015151848551610728565b9392505050565b6040805180820190915260608152600060208201526106d68384600001515184610812565b6040805180820190915260608152600060208201526103ab84856000015151858561086d565b604080518082019091526060815260006020820152825182111561074b57600080fd5b602085015161075a8386610a97565b111561078d5761078d8561077d876020015187866107789190610a97565b6108ee565b610788906002610be6565b610905565b6000808651805187602083010193508088870111156107ac5787860182525b505050602084015b602084106107ec57805182526107cb602083610a97565b91506107d8602082610a97565b90506107e5602085610bcf565b93506107b4565b51815160001960208690036101000a019081169019919091161790525083949350505050565b604080518082019091526060815260006020820152836020015183106108475761084784856020015160026107889190610be6565b8351805160208583010184815350808503610863576001810182525b5093949350505050565b60408051808201909152606081526000602082015260208501516108918584610a97565b11156108a5576108a58561077d8685610a97565b600060016108b584610100610ce9565b6108bf9190610bcf565b90508551838682010185831982511617815250805184870111156108e35783860181525b509495945050505050565b6000818311156108ff57508161059a565b50919050565b81516109118383610535565b506101c983826106af565b6040805160a0810182526000808252602080830182905282840182905260608084018390528451808601909552845283015290608082015290565b6000806040838503121561096a57600080fd5b50508035926020909101359150565b60006020828403121561098b57600080fd5b5035919050565b634e487b7160e01b600052604160045260246000fd5b6000806000606084860312156109bd57600080fd5b83356001600160a01b03811681146109d457600080fd5b925060208401359150604084013567ffffffffffffffff808211156109f857600080fd5b818601915086601f830112610a0c57600080fd5b813581811115610a1e57610a1e610992565b604051601f8201601f19908116603f01168101908382118183101715610a4657610a46610992565b81604052828152896020848701011115610a5f57600080fd5b8260208601602083013760006020848301015280955050505050509250925092565b634e487b7160e01b600052601160045260246000fd5b60008219821115610aaa57610aaa610a81565b500190565b6000815180845260005b81811015610ad557602081850181015186830182015201610ab9565b81811115610ae7576000602083870101525b50601f01601f19169290920160200192915050565b6001600160a01b0389811682526020820189905260408201889052861660608201526001600160e01b03198516608082015260a0810184905260c0810183905261010060e08201819052600090610b5583820185610aaf565b9b9a5050505050505050505050565b60018060a01b03841681528260208201526060604082015260006102b36060830184610aaf565b600060208284031215610b9d57600080fd5b815180151581146106d657600080fd5b600082610bca57634e487b7160e01b600052601260045260246000fd5b500690565b600082821015610be157610be1610a81565b500390565b6000816000190483118215151615610c0057610c00610a81565b500290565b600181815b80851115610c40578160001904821115610c2657610c26610a81565b80851615610c3357918102915b93841c9390800290610c0a565b509250929050565b600082610c575750600161059a565b81610c645750600061059a565b8160018114610c7a5760028114610c8457610ca0565b600191505061059a565b60ff841115610c9557610c95610a81565b50506001821b61059a565b5060208310610133831016604e8410600b8410161715610cc3575081810a61059a565b610ccd8383610c05565b8060001904821115610ce157610ce1610a81565b029392505050565b60006106d68383610c4856fea26469706673582212204a52bc5417eb2a4bb9b0aab83239317952c045aa74de6cd7c04f6577ba3d9da464736f6c634300080d0033",
  "linkReferences": {},
  "deployedLinkReferences": {}
}